{
  "address": "0x820DcFFf7bE126dbd06F90C3CaC0499F6AaDF9D9",
  "abi": [
    {
      "inputs": [],
      "stateMutability": "nonpayable",
      "type": "constructor"
    },
    {
      "anonymous": false,
      "inputs": [
        {
          "indexed": true,
          "internalType": "address",
          "name": "owner",
          "type": "address"
        },
        {
          "indexed": true,
          "internalType": "address",
          "name": "approved",
          "type": "address"
        },
        {
          "indexed": true,
          "internalType": "uint256",
          "name": "tokenId",
          "type": "uint256"
        }
      ],
      "name": "Approval",
      "type": "event"
    },
    {
      "anonymous": false,
      "inputs": [
        {
          "indexed": true,
          "internalType": "address",
          "name": "owner",
          "type": "address"
        },
        {
          "indexed": true,
          "internalType": "address",
          "name": "operator",
          "type": "address"
        },
        {
          "indexed": false,
          "internalType": "bool",
          "name": "approved",
          "type": "bool"
        }
      ],
      "name": "ApprovalForAll",
      "type": "event"
    },
    {
      "anonymous": false,
      "inputs": [
        {
          "indexed": true,
          "internalType": "address",
          "name": "previousOwner",
          "type": "address"
        },
        {
          "indexed": true,
          "internalType": "address",
          "name": "newOwner",
          "type": "address"
        }
      ],
      "name": "OwnershipTransferred",
      "type": "event"
    },
    {
      "anonymous": false,
      "inputs": [
        {
          "indexed": true,
          "internalType": "address",
          "name": "from",
          "type": "address"
        },
        {
          "indexed": true,
          "internalType": "address",
          "name": "to",
          "type": "address"
        },
        {
          "indexed": true,
          "internalType": "uint256",
          "name": "tokenId",
          "type": "uint256"
        }
      ],
      "name": "Transfer",
      "type": "event"
    },
    {
      "inputs": [
        {
          "internalType": "address",
          "name": "account_",
          "type": "address"
        },
        {
          "internalType": "string",
          "name": "uri_",
          "type": "string"
        }
      ],
      "name": "airdrop",
      "outputs": [],
      "stateMutability": "nonpayable",
      "type": "function"
    },
    {
      "inputs": [
        {
          "internalType": "address",
          "name": "to",
          "type": "address"
        },
        {
          "internalType": "uint256",
          "name": "tokenId",
          "type": "uint256"
        }
      ],
      "name": "approve",
      "outputs": [],
      "stateMutability": "nonpayable",
      "type": "function"
    },
    {
      "inputs": [
        {
          "internalType": "address",
          "name": "owner",
          "type": "address"
        }
      ],
      "name": "balanceOf",
      "outputs": [
        {
          "internalType": "uint256",
          "name": "",
          "type": "uint256"
        }
      ],
      "stateMutability": "view",
      "type": "function"
    },
    {
      "inputs": [
        {
          "internalType": "uint256",
          "name": "id_",
          "type": "uint256"
        }
      ],
      "name": "burn",
      "outputs": [],
      "stateMutability": "nonpayable",
      "type": "function"
    },
    {
      "inputs": [
        {
          "internalType": "uint256",
          "name": "tokenId",
          "type": "uint256"
        }
      ],
      "name": "getApproved",
      "outputs": [
        {
          "internalType": "address",
          "name": "",
          "type": "address"
        }
      ],
      "stateMutability": "view",
      "type": "function"
    },
    {
      "inputs": [
        {
          "internalType": "address",
          "name": "address_",
          "type": "address"
        }
      ],
      "name": "getOwnedTokens",
      "outputs": [
        {
          "components": [
            {
              "internalType": "uint256",
              "name": "id",
              "type": "uint256"
            },
            {
              "internalType": "string",
              "name": "uri",
              "type": "string"
            }
          ],
          "internalType": "struct INFT.TokenView[]",
          "name": "",
          "type": "tuple[]"
        }
      ],
      "stateMutability": "view",
      "type": "function"
    },
    {
      "inputs": [
        {
          "internalType": "string",
          "name": "name_",
          "type": "string"
        },
        {
          "internalType": "string",
          "name": "symbol_",
          "type": "string"
        },
        {
          "internalType": "address",
          "name": "owner_",
          "type": "address"
        }
      ],
      "name": "init",
      "outputs": [],
      "stateMutability": "nonpayable",
      "type": "function"
    },
    {
      "inputs": [
        {
          "internalType": "address",
          "name": "owner",
          "type": "address"
        },
        {
          "internalType": "address",
          "name": "operator",
          "type": "address"
        }
      ],
      "name": "isApprovedForAll",
      "outputs": [
        {
          "internalType": "bool",
          "name": "",
          "type": "bool"
        }
      ],
      "stateMutability": "view",
      "type": "function"
    },
    {
      "inputs": [],
      "name": "name",
      "outputs": [
        {
          "internalType": "string",
          "name": "",
          "type": "string"
        }
      ],
      "stateMutability": "view",
      "type": "function"
    },
    {
      "inputs": [],
      "name": "owner",
      "outputs": [
        {
          "internalType": "address",
          "name": "",
          "type": "address"
        }
      ],
      "stateMutability": "view",
      "type": "function"
    },
    {
      "inputs": [
        {
          "internalType": "uint256",
          "name": "tokenId",
          "type": "uint256"
        }
      ],
      "name": "ownerOf",
      "outputs": [
        {
          "internalType": "address",
          "name": "",
          "type": "address"
        }
      ],
      "stateMutability": "view",
      "type": "function"
    },
    {
      "inputs": [],
      "name": "renounceOwnership",
      "outputs": [],
      "stateMutability": "nonpayable",
      "type": "function"
    },
    {
      "inputs": [
        {
          "internalType": "address",
          "name": "from",
          "type": "address"
        },
        {
          "internalType": "address",
          "name": "to",
          "type": "address"
        },
        {
          "internalType": "uint256",
          "name": "tokenId",
          "type": "uint256"
        }
      ],
      "name": "safeTransferFrom",
      "outputs": [],
      "stateMutability": "nonpayable",
      "type": "function"
    },
    {
      "inputs": [
        {
          "internalType": "address",
          "name": "from",
          "type": "address"
        },
        {
          "internalType": "address",
          "name": "to",
          "type": "address"
        },
        {
          "internalType": "uint256",
          "name": "tokenId",
          "type": "uint256"
        },
        {
          "internalType": "bytes",
          "name": "_data",
          "type": "bytes"
        }
      ],
      "name": "safeTransferFrom",
      "outputs": [],
      "stateMutability": "nonpayable",
      "type": "function"
    },
    {
      "inputs": [
        {
          "internalType": "address",
          "name": "operator",
          "type": "address"
        },
        {
          "internalType": "bool",
          "name": "approved",
          "type": "bool"
        }
      ],
      "name": "setApprovalForAll",
      "outputs": [],
      "stateMutability": "nonpayable",
      "type": "function"
    },
    {
      "inputs": [
        {
          "internalType": "uint256",
          "name": "tokenId_",
          "type": "uint256"
        },
        {
          "internalType": "string",
          "name": "uri_",
          "type": "string"
        }
      ],
      "name": "setURI",
      "outputs": [],
      "stateMutability": "nonpayable",
      "type": "function"
    },
    {
      "inputs": [
        {
          "internalType": "bytes4",
          "name": "interfaceId",
          "type": "bytes4"
        }
      ],
      "name": "supportsInterface",
      "outputs": [
        {
          "internalType": "bool",
          "name": "",
          "type": "bool"
        }
      ],
      "stateMutability": "view",
      "type": "function"
    },
    {
      "inputs": [],
      "name": "symbol",
      "outputs": [
        {
          "internalType": "string",
          "name": "",
          "type": "string"
        }
      ],
      "stateMutability": "view",
      "type": "function"
    },
    {
      "inputs": [
        {
          "internalType": "uint256",
          "name": "index",
          "type": "uint256"
        }
      ],
      "name": "tokenByIndex",
      "outputs": [
        {
          "internalType": "uint256",
          "name": "",
          "type": "uint256"
        }
      ],
      "stateMutability": "view",
      "type": "function"
    },
    {
      "inputs": [
        {
          "internalType": "address",
          "name": "owner",
          "type": "address"
        },
        {
          "internalType": "uint256",
          "name": "index",
          "type": "uint256"
        }
      ],
      "name": "tokenOfOwnerByIndex",
      "outputs": [
        {
          "internalType": "uint256",
          "name": "",
          "type": "uint256"
        }
      ],
      "stateMutability": "view",
      "type": "function"
    },
    {
      "inputs": [
        {
          "internalType": "uint256",
          "name": "tokenId",
          "type": "uint256"
        }
      ],
      "name": "tokenURI",
      "outputs": [
        {
          "internalType": "string",
          "name": "",
          "type": "string"
        }
      ],
      "stateMutability": "view",
      "type": "function"
    },
    {
      "inputs": [],
      "name": "totalSupply",
      "outputs": [
        {
          "internalType": "uint256",
          "name": "",
          "type": "uint256"
        }
      ],
      "stateMutability": "view",
      "type": "function"
    },
    {
      "inputs": [
        {
          "internalType": "address",
          "name": "from",
          "type": "address"
        },
        {
          "internalType": "address",
          "name": "to",
          "type": "address"
        },
        {
          "internalType": "uint256",
          "name": "tokenId",
          "type": "uint256"
        }
      ],
      "name": "transferFrom",
      "outputs": [],
      "stateMutability": "nonpayable",
      "type": "function"
    },
    {
      "inputs": [
        {
          "internalType": "address",
          "name": "newOwner",
          "type": "address"
        }
      ],
      "name": "transferOwnership",
      "outputs": [],
      "stateMutability": "nonpayable",
      "type": "function"
    }
  ],
  "transactionHash": "0x8ac5ec9db74b834eeb4de9934f7855f8bc08b187fbc1ad48d99bf566f1fd9371",
  "args": [],
  "numDeployments": 1,
  "solcInputHash": "ab3624523e1eb18dd7eac3646bb22e3a",
  "bytecode": "0x60806040523480156200001157600080fd5b506040805160208082018084526000808452845192830190945283825282519293919262000041929190620000d0565b50805162000057906001906020840190620000d0565b505050620000746200006e6200007a60201b60201c565b6200007e565b620001b3565b3390565b600a80546001600160a01b038381166001600160a01b0319831681179093556040519116919082907f8be0079c531659141344cd1fd0a4f28419497f9722a3daafe3b4186f6b6457e090600090a35050565b828054620000de9062000176565b90600052602060002090601f0160209004810192826200010257600085556200014d565b82601f106200011d57805160ff19168380011785556200014d565b828001600101855582156200014d579182015b828111156200014d57825182559160200191906001019062000130565b506200015b9291506200015f565b5090565b5b808211156200015b576000815560010162000160565b6002810460018216806200018b57607f821691505b60208210811415620001ad57634e487b7160e01b600052602260045260246000fd5b50919050565b611f5380620001c36000396000f3fe608060405234801561001057600080fd5b50600436106101585760003560e01c80636ee5741a116100c3578063a22cb4651161007c578063a22cb465146102cb578063b88d4fde146102de578063c87b56dd146102f1578063d9d6165514610304578063e985e9c514610324578063f2fde38b1461036057610158565b80636ee5741a1461027157806370a0823114610284578063715018a614610297578063862440e21461029f5780638da5cb5b146102b257806395d89b41146102c357610158565b80632f745c59116101155780632f745c59146101ff57806342842e0e1461021257806342966c68146102255780634f6ccce7146102385780635e4731281461024b5780636352211e1461025e57610158565b806301ffc9a71461015d57806306fdde0314610185578063081812fc1461019a578063095ea7b3146101c557806318160ddd146101da57806323b872dd146101ec575b600080fd5b61017061016b366004611b82565b610373565b60405190151581526020015b60405180910390f35b61018d610398565b60405161017c9190611d6b565b6101ad6101a8366004611c2b565b61042a565b6040516001600160a01b03909116815260200161017c565b6101d86101d3366004611b59565b6104c4565b005b6008545b60405190815260200161017c565b6101d86101fa366004611a1f565b6105da565b6101de61020d366004611b59565b61060b565b6101d8610220366004611a1f565b6106a1565b6101d8610233366004611c2b565b6106bc565b6101de610246366004611c2b565b610752565b6101d8610259366004611b0d565b6107f3565b6101ad61026c366004611c2b565b610827565b6101d861027f366004611bba565b61089e565b6101de6102923660046119d3565b61097e565b6101d8610a05565b6101d86102ad366004611c43565b610a3b565b600a546001600160a01b03166101ad565b61018d610ace565b6101d86102d9366004611ad3565b610add565b6101d86102ec366004611a5a565b610ae8565b61018d6102ff366004611c2b565b610b1a565b6103176103123660046119d3565b610bbc565b60405161017c9190611cfa565b6101706103323660046119ed565b6001600160a01b03918216600090815260056020908152604080832093909416825291909152205460ff1690565b6101d861036e3660046119d3565b610cc7565b60006001600160e01b031982161580610390575061039082610d62565b90505b919050565b6060600c80546103a790611e85565b80601f01602080910402602001604051908101604052809291908181526020018280546103d390611e85565b80156104205780601f106103f557610100808354040283529160200191610420565b820191906000526020600020905b81548152906001019060200180831161040357829003601f168201915b5050505050905090565b6000818152600260205260408120546001600160a01b03166104a85760405162461bcd60e51b815260206004820152602c60248201527f4552433732313a20617070726f76656420717565727920666f72206e6f6e657860448201526b34b9ba32b73a103a37b5b2b760a11b60648201526084015b60405180910390fd5b506000908152600460205260409020546001600160a01b031690565b60006104cf82610827565b9050806001600160a01b0316836001600160a01b0316141561053d5760405162461bcd60e51b815260206004820152602160248201527f4552433732313a20617070726f76616c20746f2063757272656e74206f776e656044820152603960f91b606482015260840161049f565b336001600160a01b038216148061055957506105598133610332565b6105cb5760405162461bcd60e51b815260206004820152603860248201527f4552433732313a20617070726f76652063616c6c6572206973206e6f74206f7760448201527f6e6572206e6f7220617070726f76656420666f7220616c6c0000000000000000606482015260840161049f565b6105d58383610d6d565b505050565b6105e43382610ddb565b6106005760405162461bcd60e51b815260040161049f90611e05565b6105d5838383610ed2565b60006106168361097e565b82106106785760405162461bcd60e51b815260206004820152602b60248201527f455243373231456e756d657261626c653a206f776e657220696e646578206f7560448201526a74206f6620626f756e647360a81b606482015260840161049f565b506001600160a01b03919091166000908152600660209081526040808320938352929052205490565b6105d583838360405180602001604052806000815250610ae8565b60008181526002602052604090205481906001600160a01b031661071b5760405162461bcd60e51b815260206004820152601660248201527527232a1d103737b732bc34b9ba32b73a103a37b5b2b760511b604482015260640161049f565b600a546001600160a01b031633146107455760405162461bcd60e51b815260040161049f90611dd0565b61074e8261107d565b5050565b600061075d60085490565b82106107c05760405162461bcd60e51b815260206004820152602c60248201527f455243373231456e756d657261626c653a20676c6f62616c20696e646578206f60448201526b7574206f6620626f756e647360a01b606482015260840161049f565b600882815481106107e157634e487b7160e01b600052603260045260246000fd5b90600052602060002001549050919050565b600a546001600160a01b0316331461081d5760405162461bcd60e51b815260040161049f90611dd0565b61074e8282611124565b6000818152600260205260408120546001600160a01b0316806103905760405162461bcd60e51b815260206004820152602960248201527f4552433732313a206f776e657220717565727920666f72206e6f6e657869737460448201526832b73a103a37b5b2b760b91b606482015260840161049f565b601054610100900460ff166108b95760105460ff16156108bd565b303b155b6109205760405162461bcd60e51b815260206004820152602e60248201527f496e697469616c697a61626c653a20636f6e747261637420697320616c72656160448201526d191e481a5b9a5d1a585b1a5e995960921b606482015260840161049f565b601054610100900460ff1615801561094b576010805460ff1961ff0019909116610100171660011790555b6109548461114b565b61095d8361115e565b61096682611171565b8015610978576010805461ff00191690555b50505050565b60006001600160a01b0382166109e95760405162461bcd60e51b815260206004820152602a60248201527f4552433732313a2062616c616e636520717565727920666f7220746865207a65604482015269726f206164647265737360b01b606482015260840161049f565b506001600160a01b031660009081526003602052604090205490565b600a546001600160a01b03163314610a2f5760405162461bcd60e51b815260040161049f90611dd0565b610a396000611171565b565b60008281526002602052604090205482906001600160a01b0316610a9a5760405162461bcd60e51b815260206004820152601660248201527527232a1d103737b732bc34b9ba32b73a103a37b5b2b760511b604482015260640161049f565b600a546001600160a01b03163314610ac45760405162461bcd60e51b815260040161049f90611dd0565b6105d583836111c3565b6060600d80546103a790611e85565b61074e3383836111e2565b610af23383610ddb565b610b0e5760405162461bcd60e51b815260040161049f90611e05565b610978848484846112b1565b6000818152600f60205260409020805460609190610b3790611e85565b80601f0160208091040260200160405190810160405280929190818152602001828054610b6390611e85565b8015610bb05780601f10610b8557610100808354040283529160200191610bb0565b820191906000526020600020905b815481529060010190602001808311610b9357829003601f168201915b50505050509050919050565b60606000610bc98361097e565b905060008167ffffffffffffffff811115610bf457634e487b7160e01b600052604160045260246000fd5b604051908082528060200260200182016040528015610c3a57816020015b604080518082019091526000815260606020820152815260200190600190039081610c125790505b5090508115610cc05760005b82811015610cbe576000610c5a868361060b565b90506000610c6782610b1a565b9050604051806040016040528083815260200182815250848481518110610c9e57634e487b7160e01b600052603260045260246000fd5b602002602001018190525050508080610cb690611ec0565b915050610c46565b505b9392505050565b600a546001600160a01b03163314610cf15760405162461bcd60e51b815260040161049f90611dd0565b6001600160a01b038116610d565760405162461bcd60e51b815260206004820152602660248201527f4f776e61626c653a206e6577206f776e657220697320746865207a65726f206160448201526564647265737360d01b606482015260840161049f565b610d5f81611171565b50565b6000610390826112e4565b600081815260046020526040902080546001600160a01b0319166001600160a01b0384169081179091558190610da282610827565b6001600160a01b03167f8c5be1e5ebec7d5bd14f71427d1e84f3dd0314c0f7b2291e5b200ac8c7c3b92560405160405180910390a45050565b6000818152600260205260408120546001600160a01b0316610e545760405162461bcd60e51b815260206004820152602c60248201527f4552433732313a206f70657261746f7220717565727920666f72206e6f6e657860448201526b34b9ba32b73a103a37b5b2b760a11b606482015260840161049f565b6000610e5f83610827565b9050806001600160a01b0316846001600160a01b03161480610e9a5750836001600160a01b0316610e8f8461042a565b6001600160a01b0316145b80610eca57506001600160a01b0380821660009081526005602090815260408083209388168352929052205460ff165b949350505050565b826001600160a01b0316610ee582610827565b6001600160a01b031614610f4d5760405162461bcd60e51b815260206004820152602960248201527f4552433732313a207472616e73666572206f6620746f6b656e2074686174206960448201526839903737ba1037bbb760b91b606482015260840161049f565b6001600160a01b038216610faf5760405162461bcd60e51b8152602060048201526024808201527f4552433732313a207472616e7366657220746f20746865207a65726f206164646044820152637265737360e01b606482015260840161049f565b610fba838383611309565b610fc5600082610d6d565b6001600160a01b0383166000908152600360205260408120805460019290610fee908490611e6e565b90915550506001600160a01b038216600090815260036020526040812080546001929061101c908490611e56565b909155505060008181526002602052604080822080546001600160a01b0319166001600160a01b0386811691821790925591518493918716917fddf252ad1be2c89b69c2b068fc378daa952ba7f163c4a11628f55a4df523b3ef91a4505050565b600061108882610827565b905061109681600084611309565b6110a1600083610d6d565b6001600160a01b03811660009081526003602052604081208054600192906110ca908490611e6e565b909155505060008281526002602052604080822080546001600160a01b0319169055518391906001600160a01b038416907fddf252ad1be2c89b69c2b068fc378daa952ba7f163c4a11628f55a4df523b3ef908390a45050565b600e54611132906001611e56565b600e8190556111418382611314565b6105d581836111c3565b805161074e90600c90602084019061188e565b805161074e90600d90602084019061188e565b600a80546001600160a01b038381166001600160a01b0319831681179093556040519116919082907f8be0079c531659141344cd1fd0a4f28419497f9722a3daafe3b4186f6b6457e090600090a35050565b6000828152600f6020908152604090912082516105d59284019061188e565b816001600160a01b0316836001600160a01b031614156112445760405162461bcd60e51b815260206004820152601960248201527f4552433732313a20617070726f766520746f2063616c6c657200000000000000604482015260640161049f565b6001600160a01b03838116600081815260056020908152604080832094871680845294825291829020805460ff191686151590811790915591519182527f17307eab39ab6107e8899845ad3d59bd9653f200f220920489ca2b5937696c31910160405180910390a3505050565b6112bc848484610ed2565b6112c88484848461132e565b6109785760405162461bcd60e51b815260040161049f90611d7e565b60006001600160e01b0319821663780e9d6360e01b148061039057506103908261143b565b6105d583838361148b565b61074e828260405180602001604052806000815250611496565b60006001600160a01b0384163b1561143057604051630a85bd0160e11b81526001600160a01b0385169063150b7a0290611372903390899088908890600401611cbd565b602060405180830381600087803b15801561138c57600080fd5b505af19250505080156113bc575060408051601f3d908101601f191682019092526113b991810190611b9e565b60015b611416573d8080156113ea576040519150601f19603f3d011682016040523d82523d6000602084013e6113ef565b606091505b50805161140e5760405162461bcd60e51b815260040161049f90611d7e565b805181602001fd5b6001600160e01b031916630a85bd0160e11b149050610eca565b506001949350505050565b60006001600160e01b031982166380ac58cd60e01b148061146c57506001600160e01b03198216635b5e139f60e01b145b8061039057506301ffc9a760e01b6001600160e01b0319831614610390565b6105d58383836114c9565b6114a08383611586565b6114ad600084848461132e565b6105d55760405162461bcd60e51b815260040161049f90611d7e565b6001600160a01b0383166115245761151f81600880546000838152600960205260408120829055600182018355919091527ff3f7a9fe364faab93b216da50a3214154f22a0a2b415b23a84c8169e8b636ee30155565b611547565b816001600160a01b0316836001600160a01b0316146115475761154783826116d4565b6001600160a01b0382166115635761155e81611771565b6105d5565b826001600160a01b0316826001600160a01b0316146105d5576105d5828261184a565b6001600160a01b0382166115dc5760405162461bcd60e51b815260206004820181905260248201527f4552433732313a206d696e7420746f20746865207a65726f2061646472657373604482015260640161049f565b6000818152600260205260409020546001600160a01b0316156116415760405162461bcd60e51b815260206004820152601c60248201527f4552433732313a20746f6b656e20616c7265616479206d696e74656400000000604482015260640161049f565b61164d60008383611309565b6001600160a01b0382166000908152600360205260408120805460019290611676908490611e56565b909155505060008181526002602052604080822080546001600160a01b0319166001600160a01b03861690811790915590518392907fddf252ad1be2c89b69c2b068fc378daa952ba7f163c4a11628f55a4df523b3ef908290a45050565b600060016116e18461097e565b6116eb9190611e6e565b60008381526007602052604090205490915080821461173e576001600160a01b03841660009081526006602090815260408083208584528252808320548484528184208190558352600790915290208190555b5060009182526007602090815260408084208490556001600160a01b039094168352600681528383209183525290812055565b60085460009061178390600190611e6e565b600083815260096020526040812054600880549394509092849081106117b957634e487b7160e01b600052603260045260246000fd5b9060005260206000200154905080600883815481106117e857634e487b7160e01b600052603260045260246000fd5b600091825260208083209091019290925582815260099091526040808220849055858252812055600880548061182e57634e487b7160e01b600052603160045260246000fd5b6001900381819060005260206000200160009055905550505050565b60006118558361097e565b6001600160a01b039093166000908152600660209081526040808320868452825280832085905593825260079052919091209190915550565b82805461189a90611e85565b90600052602060002090601f0160209004810192826118bc5760008555611902565b82601f106118d557805160ff1916838001178555611902565b82800160010185558215611902579182015b828111156119025782518255916020019190600101906118e7565b5061190e929150611912565b5090565b5b8082111561190e5760008155600101611913565b600067ffffffffffffffff8084111561194257611942611ef1565b604051601f8501601f19908116603f0116810190828211818310171561196a5761196a611ef1565b8160405280935085815286868601111561198357600080fd5b858560208301376000602087830101525050509392505050565b80356001600160a01b038116811461039357600080fd5b600082601f8301126119c4578081fd5b610cc083833560208501611927565b6000602082840312156119e4578081fd5b610cc08261199d565b600080604083850312156119ff578081fd5b611a088361199d565b9150611a166020840161199d565b90509250929050565b600080600060608486031215611a33578081fd5b611a3c8461199d565b9250611a4a6020850161199d565b9150604084013590509250925092565b60008060008060808587031215611a6f578081fd5b611a788561199d565b9350611a866020860161199d565b925060408501359150606085013567ffffffffffffffff811115611aa8578182fd5b8501601f81018713611ab8578182fd5b611ac787823560208401611927565b91505092959194509250565b60008060408385031215611ae5578182fd5b611aee8361199d565b915060208301358015158114611b02578182fd5b809150509250929050565b60008060408385031215611b1f578182fd5b611b288361199d565b9150602083013567ffffffffffffffff811115611b43578182fd5b611b4f858286016119b4565b9150509250929050565b60008060408385031215611b6b578182fd5b611b748361199d565b946020939093013593505050565b600060208284031215611b93578081fd5b8135610cc081611f07565b600060208284031215611baf578081fd5b8151610cc081611f07565b600080600060608486031215611bce578283fd5b833567ffffffffffffffff80821115611be5578485fd5b611bf1878388016119b4565b94506020860135915080821115611c06578384fd5b50611c13868287016119b4565b925050611c226040850161199d565b90509250925092565b600060208284031215611c3c578081fd5b5035919050565b60008060408385031215611c55578182fd5b82359150602083013567ffffffffffffffff811115611b43578182fd5b60008151808452815b81811015611c9757602081850181015186830182015201611c7b565b81811115611ca85782602083870101525b50601f01601f19169290920160200192915050565b6001600160a01b0385811682528416602082015260408101839052608060608201819052600090611cf090830184611c72565b9695505050505050565b60208082528251828201819052600091906040908185019080840286018301878501865b83811015611d5d57888303603f19018552815180518452870151878401879052611d4a87850182611c72565b9588019593505090860190600101611d1e565b509098975050505050505050565b600060208252610cc06020830184611c72565b60208082526032908201527f4552433732313a207472616e7366657220746f206e6f6e20455243373231526560408201527131b2b4bb32b91034b6b83632b6b2b73a32b960711b606082015260800190565b6020808252818101527f4f776e61626c653a2063616c6c6572206973206e6f7420746865206f776e6572604082015260600190565b60208082526031908201527f4552433732313a207472616e736665722063616c6c6572206973206e6f74206f6040820152701ddb995c881b9bdc88185c1c1c9bdd9959607a1b606082015260800190565b60008219821115611e6957611e69611edb565b500190565b600082821015611e8057611e80611edb565b500390565b600281046001821680611e9957607f821691505b60208210811415611eba57634e487b7160e01b600052602260045260246000fd5b50919050565b6000600019821415611ed457611ed4611edb565b5060010190565b634e487b7160e01b600052601160045260246000fd5b634e487b7160e01b600052604160045260246000fd5b6001600160e01b031981168114610d5f57600080fdfea2646970667358221220bfa1559252da8991de3a7ec20e441124ba5889f8f99a0c9683078b32ca00c1e264736f6c63430008020033",
  "devdoc": {
    "kind": "dev",
    "methods": {
      "approve(address,uint256)": {
        "details": "See {IERC721-approve}."
      },
      "balanceOf(address)": {
        "details": "See {IERC721-balanceOf}."
      },
      "getApproved(uint256)": {
        "details": "See {IERC721-getApproved}."
      },
      "init(string,string,address)": {
        "details": "MUST call when proxy deployment  Using `openzeppelin-contracts/contracts/proxy/transparent/TransparentUpgradeableProxy.sol`.  Therefore doesn't setup `onlyOwner`."
      },
      "isApprovedForAll(address,address)": {
        "details": "See {IERC721-isApprovedForAll}."
      },
      "name()": {
        "details": "See {IERC721Metadata-name}."
      },
      "owner()": {
        "details": "Returns the address of the current owner."
      },
      "ownerOf(uint256)": {
        "details": "See {IERC721-ownerOf}."
      },
      "renounceOwnership()": {
        "details": "Leaves the contract without owner. It will not be possible to call `onlyOwner` functions anymore. Can only be called by the current owner. NOTE: Renouncing ownership will leave the contract without an owner, thereby removing any functionality that is only available to the owner."
      },
      "safeTransferFrom(address,address,uint256)": {
        "details": "See {IERC721-safeTransferFrom}."
      },
      "safeTransferFrom(address,address,uint256,bytes)": {
        "details": "See {IERC721-safeTransferFrom}."
      },
      "setApprovalForAll(address,bool)": {
        "details": "See {IERC721-setApprovalForAll}."
      },
      "symbol()": {
        "details": "See {IERC721Metadata-symbol}."
      },
      "tokenByIndex(uint256)": {
        "details": "See {IERC721Enumerable-tokenByIndex}."
      },
      "tokenOfOwnerByIndex(address,uint256)": {
        "details": "See {IERC721Enumerable-tokenOfOwnerByIndex}."
      },
      "tokenURI(uint256)": {
        "details": "See {IERC721Metadata-tokenURI}."
      },
      "totalSupply()": {
        "details": "See {IERC721Enumerable-totalSupply}."
      },
      "transferFrom(address,address,uint256)": {
        "details": "See {IERC721-transferFrom}."
      },
      "transferOwnership(address)": {
        "details": "Transfers ownership of the contract to a new account (`newOwner`). Can only be called by the current owner."
      }
    },
    "version": 1
  },
  "userdoc": {
    "kind": "user",
    "methods": {
      "airdrop(address,string)": {
        "notice": "airdrop for use"
      },
      "burn(uint256)": {
        "notice": "burn token"
      },
      "getOwnedTokens(address)": {
        "notice": "===== ===== ===== ===== ===== ===== ===== ===== ===== ===== View Functions ===== ===== ===== ===== ===== ===== ===== ===== ===== ===== "
      },
      "setURI(uint256,string)": {
        "notice": "setup uri"
      },
      "supportsInterface(bytes4)": {
        "notice": "support interface"
      }
    },
    "version": 1
  },
  "storageLayout": {
    "storage": [
      {
        "astId": 968,
        "contract": "contracts/NFTV1.sol:NFTV1",
        "label": "_name",
        "offset": 0,
        "slot": "0",
        "type": "t_string_storage"
      },
      {
        "astId": 970,
        "contract": "contracts/NFTV1.sol:NFTV1",
        "label": "_symbol",
        "offset": 0,
        "slot": "1",
        "type": "t_string_storage"
      },
      {
        "astId": 974,
        "contract": "contracts/NFTV1.sol:NFTV1",
        "label": "_owners",
        "offset": 0,
        "slot": "2",
        "type": "t_mapping(t_uint256,t_address)"
      },
      {
        "astId": 978,
        "contract": "contracts/NFTV1.sol:NFTV1",
        "label": "_balances",
        "offset": 0,
        "slot": "3",
        "type": "t_mapping(t_address,t_uint256)"
      },
      {
        "astId": 982,
        "contract": "contracts/NFTV1.sol:NFTV1",
        "label": "_tokenApprovals",
        "offset": 0,
        "slot": "4",
        "type": "t_mapping(t_uint256,t_address)"
      },
      {
        "astId": 988,
        "contract": "contracts/NFTV1.sol:NFTV1",
        "label": "_operatorApprovals",
        "offset": 0,
        "slot": "5",
        "type": "t_mapping(t_address,t_mapping(t_address,t_bool))"
      },
      {
        "astId": 1922,
        "contract": "contracts/NFTV1.sol:NFTV1",
        "label": "_ownedTokens",
        "offset": 0,
        "slot": "6",
        "type": "t_mapping(t_address,t_mapping(t_uint256,t_uint256))"
      },
      {
        "astId": 1926,
        "contract": "contracts/NFTV1.sol:NFTV1",
        "label": "_ownedTokensIndex",
        "offset": 0,
        "slot": "7",
        "type": "t_mapping(t_uint256,t_uint256)"
      },
      {
        "astId": 1929,
        "contract": "contracts/NFTV1.sol:NFTV1",
        "label": "_allTokens",
        "offset": 0,
        "slot": "8",
        "type": "t_array(t_uint256)dyn_storage"
      },
      {
        "astId": 1933,
        "contract": "contracts/NFTV1.sol:NFTV1",
        "label": "_allTokensIndex",
        "offset": 0,
        "slot": "9",
        "type": "t_mapping(t_uint256,t_uint256)"
      },
      {
        "astId": 7,
        "contract": "contracts/NFTV1.sol:NFTV1",
        "label": "_owner",
        "offset": 0,
        "slot": "10",
        "type": "t_address"
      },
      {
        "astId": 3762,
        "contract": "contracts/NFTV1.sol:NFTV1",
        "label": "_uri",
        "offset": 0,
        "slot": "11",
        "type": "t_string_storage"
      },
      {
        "astId": 3764,
        "contract": "contracts/NFTV1.sol:NFTV1",
        "label": "_initName",
        "offset": 0,
        "slot": "12",
        "type": "t_string_storage"
      },
      {
        "astId": 3766,
        "contract": "contracts/NFTV1.sol:NFTV1",
        "label": "_initSymbol",
        "offset": 0,
        "slot": "13",
        "type": "t_string_storage"
      },
      {
        "astId": 3768,
        "contract": "contracts/NFTV1.sol:NFTV1",
        "label": "_tokenIdTracker",
        "offset": 0,
        "slot": "14",
        "type": "t_uint256"
      },
      {
        "astId": 3772,
        "contract": "contracts/NFTV1.sol:NFTV1",
        "label": "_tokenURIs",
        "offset": 0,
        "slot": "15",
        "type": "t_mapping(t_uint256,t_string_storage)"
      },
      {
        "astId": 875,
        "contract": "contracts/NFTV1.sol:NFTV1",
        "label": "_initialized",
        "offset": 0,
        "slot": "16",
        "type": "t_bool"
      },
      {
        "astId": 878,
        "contract": "contracts/NFTV1.sol:NFTV1",
        "label": "_initializing",
        "offset": 1,
        "slot": "16",
        "type": "t_bool"
      }
    ],
    "types": {
      "t_address": {
        "encoding": "inplace",
        "label": "address",
        "numberOfBytes": "20"
      },
      "t_array(t_uint256)dyn_storage": {
        "base": "t_uint256",
        "encoding": "dynamic_array",
        "label": "uint256[]",
        "numberOfBytes": "32"
      },
      "t_bool": {
        "encoding": "inplace",
        "label": "bool",
        "numberOfBytes": "1"
      },
      "t_mapping(t_address,t_bool)": {
        "encoding": "mapping",
        "key": "t_address",
        "label": "mapping(address => bool)",
        "numberOfBytes": "32",
        "value": "t_bool"
      },
      "t_mapping(t_address,t_mapping(t_address,t_bool))": {
        "encoding": "mapping",
        "key": "t_address",
        "label": "mapping(address => mapping(address => bool))",
        "numberOfBytes": "32",
        "value": "t_mapping(t_address,t_bool)"
      },
      "t_mapping(t_address,t_mapping(t_uint256,t_uint256))": {
        "encoding": "mapping",
        "key": "t_address",
        "label": "mapping(address => mapping(uint256 => uint256))",
        "numberOfBytes": "32",
        "value": "t_mapping(t_uint256,t_uint256)"
      },
      "t_mapping(t_address,t_uint256)": {
        "encoding": "mapping",
        "key": "t_address",
        "label": "mapping(address => uint256)",
        "numberOfBytes": "32",
        "value": "t_uint256"
      },
      "t_mapping(t_uint256,t_address)": {
        "encoding": "mapping",
        "key": "t_uint256",
        "label": "mapping(uint256 => address)",
        "numberOfBytes": "32",
        "value": "t_address"
      },
      "t_mapping(t_uint256,t_string_storage)": {
        "encoding": "mapping",
        "key": "t_uint256",
        "label": "mapping(uint256 => string)",
        "numberOfBytes": "32",
        "value": "t_string_storage"
      },
      "t_mapping(t_uint256,t_uint256)": {
        "encoding": "mapping",
        "key": "t_uint256",
        "label": "mapping(uint256 => uint256)",
        "numberOfBytes": "32",
        "value": "t_uint256"
      },
      "t_string_storage": {
        "encoding": "bytes",
        "label": "string",
        "numberOfBytes": "32"
      },
      "t_uint256": {
        "encoding": "inplace",
        "label": "uint256",
        "numberOfBytes": "32"
      }
    }
  }
}